{"abi":[{"type":"function","name":"RELATIVE_BROADCAST_PATH","inputs":[],"outputs":[{"name":"","type":"string","internalType":"string"}],"stateMutability":"view"},{"type":"function","name":"vm","inputs":[],"outputs":[{"name":"","type":"Vm","internalType":"contract Vm"}],"stateMutability":"view"}],"bytecode":{"object":"0x6080806040523461001a576101329081610020823930815050f35b600080fdfe608060408181526004361015601357600080fd5b600091823560e01c9081632aa1c6961460605750633a76846314603557600080fd5b81600319360112605c5760209051737109709ecfa91a80626ff3989d68f67f5b1dd12d8152f35b5080fd5b90508260031936011260f85781810181811067ffffffffffffffff82111760e4578252600b81526020906a0b8bd89c9bd85918d85cdd60aa1b6020820152825193849260208452825192836020860152825b84811060cf57505050828201840152601f01601f19168101030190f35b818101830151888201880152879550820160b2565b634e487b7160e01b84526041600452602484fd5b8280fdfea26469706673582212200a949c04582e901b8bfceb8fc6ed36614d60efd3260834f23c0822feefb1ab6b64736f6c63430008180033","linkReferences":{}},"methodIdentifiers":{"RELATIVE_BROADCAST_PATH()":"2aa1c696","vm()":"3a768463"},"id":39}