{"abi":[{"type":"constructor","inputs":[{"name":"entrypoint","type":"address","internalType":"address"}],"stateMutability":"nonpayable"},{"type":"receive","stateMutability":"payable"},{"type":"function","name":"execute","inputs":[{"name":"dest","type":"address","internalType":"address"},{"name":"value","type":"uint256","internalType":"uint256"},{"name":"functionData","type":"bytes","internalType":"bytes"}],"outputs":[],"stateMutability":"nonpayable"},{"type":"function","name":"getEntryPoint","inputs":[],"outputs":[{"name":"","type":"address","internalType":"address"}],"stateMutability":"view"},{"type":"function","name":"owner","inputs":[],"outputs":[{"name":"","type":"address","internalType":"address"}],"stateMutability":"view"},{"type":"function","name":"renounceOwnership","inputs":[],"outputs":[],"stateMutability":"nonpayable"},{"type":"function","name":"transferOwnership","inputs":[{"name":"newOwner","type":"address","internalType":"address"}],"outputs":[],"stateMutability":"nonpayable"},{"type":"function","name":"validateUserOp","inputs":[{"name":"userOp","type":"tuple","internalType":"struct PackedUserOperation","components":[{"name":"sender","type":"address","internalType":"address"},{"name":"nonce","type":"uint256","internalType":"uint256"},{"name":"initCode","type":"bytes","internalType":"bytes"},{"name":"callData","type":"bytes","internalType":"bytes"},{"name":"accountGasLimits","type":"bytes32","internalType":"bytes32"},{"name":"preVerificationGas","type":"uint256","internalType":"uint256"},{"name":"gasFees","type":"bytes32","internalType":"bytes32"},{"name":"paymasterAndData","type":"bytes","internalType":"bytes"},{"name":"signature","type":"bytes","internalType":"bytes"}]},{"name":"userOpHash","type":"bytes32","internalType":"bytes32"},{"name":"missingAccountFunds","type":"uint256","internalType":"uint256"}],"outputs":[{"name":"validationData","type":"uint256","internalType":"uint256"}],"stateMutability":"nonpayable"},{"type":"event","name":"OwnershipTransferred","inputs":[{"name":"previousOwner","type":"address","indexed":true,"internalType":"address"},{"name":"newOwner","type":"address","indexed":true,"internalType":"address"}],"anonymous":false},{"type":"error","name":"ECDSAInvalidSignature","inputs":[]},{"type":"error","name":"ECDSAInvalidSignatureLength","inputs":[{"name":"length","type":"uint256","internalType":"uint256"}]},{"type":"error","name":"ECDSAInvalidSignatureS","inputs":[{"name":"s","type":"bytes32","internalType":"bytes32"}]},{"type":"error","name":"MinimalAccount__CallFailed","inputs":[{"name":"","type":"bytes","internalType":"bytes"}]},{"type":"error","name":"MinimalAccount__NotFromEntryPoint","inputs":[]},{"type":"error","name":"MinimalAccount__NotFromEntryPointOrOwner","inputs":[]},{"type":"error","name":"OwnableInvalidOwner","inputs":[{"name":"owner","type":"address","internalType":"address"}]},{"type":"error","name":"OwnableUnauthorizedAccount","inputs":[{"name":"account","type":"address","internalType":"address"}]}],"bytecode":{"object":"0x60a0346100cf57601f61077638819003918201601f19168301916001600160401b038311848410176100d4578084926020946040528339810103126100cf57516001600160a01b0390818116908190036100cf5733156100b6576000543360018060a01b0319821617600055604051923391167f8be0079c531659141344cd1fd0a4f28419497f9722a3daafe3b4186f6b6457e0600080a360805261068b90816100eb823960805181818161015501526102d10152f35b604051631e4fbdf760e01b815260006004820152602490fd5b600080fd5b634e487b7160e01b600052604160045260246000fdfe60406080815260049081361015610020575b5050361561001e57600080fd5b005b600091823560e01c806319822f7c1461030057806344ab613f146102bc578063715018a61461025f5780638da5cb5b14610233578063b61d27f6146100f85763f2fde38b1461006f5750610011565b346100f45760203660031901126100f45761008861037a565b906100916104d8565b6001600160a01b039182169283156100de57505082546001600160a01b0319811683178455167f8be0079c531659141344cd1fd0a4f28419497f9722a3daafe3b4186f6b6457e08380a380f35b51631e4fbdf760e01b8152908101849052602490fd5b8280fd5b50346100f45760603660031901126100f45761011261037a565b9060449160443567ffffffffffffffff80821161022f573660238301121561022f578184013590811161022f57366024828401011161022f5760018060a01b03807f0000000000000000000000000000000000000000000000000000000000000000163314159081610221575b5061021157916024879392838594895193849301833781018481520391602435905af1926101ab6103ed565b93156101b5578480f35b929190925193849263038fe21560e41b845260208095850152805192836024860152825b8481106101fb5750505060448094508284010152601f80199101168101030190fd5b80830187015188820183015287955086016101d9565b8551630a1c585d60e31b81528490fd5b90508754163314153861017f565b8680fd5b50503461025b578160031936011261025b57905490516001600160a01b039091168152602090f35b5080fd5b83346102b957806003193601126102b9576102786104d8565b80546001600160a01b03198116825581906001600160a01b03167f8be0079c531659141344cd1fd0a4f28419497f9722a3daafe3b4186f6b6457e08280a380f35b80fd5b50503461025b578160031936011261025b57517f00000000000000000000000000000000000000000000000000000000000000006001600160a01b03168152602090f35b5090346100f457600319916060368401126103725780359267ffffffffffffffff8411610376576101209084360301126103725792610349602094604435946024359101610418565b9280610358575b505051908152f35b8180809233600019f15061036a6103ed565b503880610350565b8380fd5b8480fd5b600435906001600160a01b038216820361039057565b600080fd5b6040519190601f01601f1916820167ffffffffffffffff8111838210176103bb57604052565b634e487b7160e01b600052604160045260246000fd5b67ffffffffffffffff81116103bb57601f01601f191660200190565b3d15610413573d90610406610401836103d1565b610395565b9182523d6000602084013e565b606090565b6000917f19457468657265756d205369676e6564204d6573736167653a0a3332000000008352601c52603c82209061010081013590601e1981360301821215610372570190813567ffffffffffffffff81116103725760208301813603811361037657610487610401836103d1565b93828552602083369201011161037657918460208386946104b296836104bb99013784010152610504565b90929192610540565b81546001600160a01b039081169116036104d25790565b50600190565b6000546001600160a01b031633036104ec57565b60405163118cdaa760e01b8152336004820152602490fd5b81519190604183036105355761052e92506020820151906060604084015193015160001a906105c5565b9192909190565b505060009160029190565b60048110156105af5780610552575050565b6001810361056c5760405163f645eedf60e01b8152600490fd5b6002810361058d5760405163fce698f760e01b815260048101839052602490fd5b6003146105975750565b602490604051906335e2f38360e21b82526004820152fd5b634e487b7160e01b600052602160045260246000fd5b91907f7fffffffffffffffffffffffffffffff5d576e7357a4501ddfe92f46681b20a0841161064957926020929160ff608095604051948552168484015260408301526060820152600092839182805260015afa1561063d5780516001600160a01b0381161561063457918190565b50809160019190565b604051903d90823e3d90fd5b5050506000916003919056fea2646970667358221220ad3dee165e4b382ed3e62c87798cea21f25334a4707df2db0a7b48a6e47cdba364736f6c63430008180033","linkReferences":{}},"methodIdentifiers":{"execute(address,uint256,bytes)":"b61d27f6","getEntryPoint()":"44ab613f","owner()":"8da5cb5b","renounceOwnership()":"715018a6","transferOwnership(address)":"f2fde38b","validateUserOp((address,uint256,bytes,bytes,bytes32,uint256,bytes32,bytes,bytes),bytes32,uint256)":"19822f7c"},"id":84}