{"abi":[{"type":"receive","stateMutability":"payable"},{"type":"function","name":"addStake","inputs":[{"name":"unstakeDelaySec","type":"uint32","internalType":"uint32"}],"outputs":[],"stateMutability":"payable"},{"type":"function","name":"balanceOf","inputs":[{"name":"account","type":"address","internalType":"address"}],"outputs":[{"name":"","type":"uint256","internalType":"uint256"}],"stateMutability":"view"},{"type":"function","name":"delegateAndRevert","inputs":[{"name":"target","type":"address","internalType":"address"},{"name":"data","type":"bytes","internalType":"bytes"}],"outputs":[],"stateMutability":"nonpayable"},{"type":"function","name":"depositTo","inputs":[{"name":"account","type":"address","internalType":"address"}],"outputs":[],"stateMutability":"payable"},{"type":"function","name":"deposits","inputs":[{"name":"","type":"address","internalType":"address"}],"outputs":[{"name":"deposit","type":"uint256","internalType":"uint256"},{"name":"staked","type":"bool","internalType":"bool"},{"name":"stake","type":"uint112","internalType":"uint112"},{"name":"unstakeDelaySec","type":"uint32","internalType":"uint32"},{"name":"withdrawTime","type":"uint48","internalType":"uint48"}],"stateMutability":"view"},{"type":"function","name":"getDepositInfo","inputs":[{"name":"account","type":"address","internalType":"address"}],"outputs":[{"name":"info","type":"tuple","internalType":"struct IStakeManager.DepositInfo","components":[{"name":"deposit","type":"uint256","internalType":"uint256"},{"name":"staked","type":"bool","internalType":"bool"},{"name":"stake","type":"uint112","internalType":"uint112"},{"name":"unstakeDelaySec","type":"uint32","internalType":"uint32"},{"name":"withdrawTime","type":"uint48","internalType":"uint48"}]}],"stateMutability":"view"},{"type":"function","name":"getNonce","inputs":[{"name":"sender","type":"address","internalType":"address"},{"name":"key","type":"uint192","internalType":"uint192"}],"outputs":[{"name":"nonce","type":"uint256","internalType":"uint256"}],"stateMutability":"view"},{"type":"function","name":"getSenderAddress","inputs":[{"name":"initCode","type":"bytes","internalType":"bytes"}],"outputs":[],"stateMutability":"nonpayable"},{"type":"function","name":"getUserOpHash","inputs":[{"name":"userOp","type":"tuple","internalType":"struct PackedUserOperation","components":[{"name":"sender","type":"address","internalType":"address"},{"name":"nonce","type":"uint256","internalType":"uint256"},{"name":"initCode","type":"bytes","internalType":"bytes"},{"name":"callData","type":"bytes","internalType":"bytes"},{"name":"accountGasLimits","type":"bytes32","internalType":"bytes32"},{"name":"preVerificationGas","type":"uint256","internalType":"uint256"},{"name":"gasFees","type":"bytes32","internalType":"bytes32"},{"name":"paymasterAndData","type":"bytes","internalType":"bytes"},{"name":"signature","type":"bytes","internalType":"bytes"}]}],"outputs":[{"name":"","type":"bytes32","internalType":"bytes32"}],"stateMutability":"view"},{"type":"function","name":"handleAggregatedOps","inputs":[{"name":"opsPerAggregator","type":"tuple[]","internalType":"struct IEntryPoint.UserOpsPerAggregator[]","components":[{"name":"userOps","type":"tuple[]","internalType":"struct PackedUserOperation[]","components":[{"name":"sender","type":"address","internalType":"address"},{"name":"nonce","type":"uint256","internalType":"uint256"},{"name":"initCode","type":"bytes","internalType":"bytes"},{"name":"callData","type":"bytes","internalType":"bytes"},{"name":"accountGasLimits","type":"bytes32","internalType":"bytes32"},{"name":"preVerificationGas","type":"uint256","internalType":"uint256"},{"name":"gasFees","type":"bytes32","internalType":"bytes32"},{"name":"paymasterAndData","type":"bytes","internalType":"bytes"},{"name":"signature","type":"bytes","internalType":"bytes"}]},{"name":"aggregator","type":"address","internalType":"contract IAggregator"},{"name":"signature","type":"bytes","internalType":"bytes"}]},{"name":"beneficiary","type":"address","internalType":"address payable"}],"outputs":[],"stateMutability":"nonpayable"},{"type":"function","name":"handleOps","inputs":[{"name":"ops","type":"tuple[]","internalType":"struct PackedUserOperation[]","components":[{"name":"sender","type":"address","internalType":"address"},{"name":"nonce","type":"uint256","internalType":"uint256"},{"name":"initCode","type":"bytes","internalType":"bytes"},{"name":"callData","type":"bytes","internalType":"bytes"},{"name":"accountGasLimits","type":"bytes32","internalType":"bytes32"},{"name":"preVerificationGas","type":"uint256","internalType":"uint256"},{"name":"gasFees","type":"bytes32","internalType":"bytes32"},{"name":"paymasterAndData","type":"bytes","internalType":"bytes"},{"name":"signature","type":"bytes","internalType":"bytes"}]},{"name":"beneficiary","type":"address","internalType":"address payable"}],"outputs":[],"stateMutability":"nonpayable"},{"type":"function","name":"incrementNonce","inputs":[{"name":"key","type":"uint192","internalType":"uint192"}],"outputs":[],"stateMutability":"nonpayable"},{"type":"function","name":"innerHandleOp","inputs":[{"name":"callData","type":"bytes","internalType":"bytes"},{"name":"opInfo","type":"tuple","internalType":"struct EntryPoint.UserOpInfo","components":[{"name":"mUserOp","type":"tuple","internalType":"struct EntryPoint.MemoryUserOp","components":[{"name":"sender","type":"address","internalType":"address"},{"name":"nonce","type":"uint256","internalType":"uint256"},{"name":"verificationGasLimit","type":"uint256","internalType":"uint256"},{"name":"callGasLimit","type":"uint256","internalType":"uint256"},{"name":"paymasterVerificationGasLimit","type":"uint256","internalType":"uint256"},{"name":"paymasterPostOpGasLimit","type":"uint256","internalType":"uint256"},{"name":"preVerificationGas","type":"uint256","internalType":"uint256"},{"name":"paymaster","type":"address","internalType":"address"},{"name":"maxFeePerGas","type":"uint256","internalType":"uint256"},{"name":"maxPriorityFeePerGas","type":"uint256","internalType":"uint256"}]},{"name":"userOpHash","type":"bytes32","internalType":"bytes32"},{"name":"prefund","type":"uint256","internalType":"uint256"},{"name":"contextOffset","type":"uint256","internalType":"uint256"},{"name":"preOpGas","type":"uint256","internalType":"uint256"}]},{"name":"context","type":"bytes","internalType":"bytes"}],"outputs":[{"name":"actualGasCost","type":"uint256","internalType":"uint256"}],"stateMutability":"nonpayable"},{"type":"function","name":"nonceSequenceNumber","inputs":[{"name":"","type":"address","internalType":"address"},{"name":"","type":"uint192","internalType":"uint192"}],"outputs":[{"name":"","type":"uint256","internalType":"uint256"}],"stateMutability":"view"},{"type":"function","name":"supportsInterface","inputs":[{"name":"interfaceId","type":"bytes4","internalType":"bytes4"}],"outputs":[{"name":"","type":"bool","internalType":"bool"}],"stateMutability":"view"},{"type":"function","name":"unlockStake","inputs":[],"outputs":[],"stateMutability":"nonpayable"},{"type":"function","name":"withdrawStake","inputs":[{"name":"withdrawAddress","type":"address","internalType":"address payable"}],"outputs":[],"stateMutability":"nonpayable"},{"type":"function","name":"withdrawTo","inputs":[{"name":"withdrawAddress","type":"address","internalType":"address payable"},{"name":"withdrawAmount","type":"uint256","internalType":"uint256"}],"outputs":[],"stateMutability":"nonpayable"},{"type":"event","name":"AccountDeployed","inputs":[{"name":"userOpHash","type":"bytes32","indexed":true,"internalType":"bytes32"},{"name":"sender","type":"address","indexed":true,"internalType":"address"},{"name":"factory","type":"address","indexed":false,"internalType":"address"},{"name":"paymaster","type":"address","indexed":false,"internalType":"address"}],"anonymous":false},{"type":"event","name":"BeforeExecution","inputs":[],"anonymous":false},{"type":"event","name":"Deposited","inputs":[{"name":"account","type":"address","indexed":true,"internalType":"address"},{"name":"totalDeposit","type":"uint256","indexed":false,"internalType":"uint256"}],"anonymous":false},{"type":"event","name":"PostOpRevertReason","inputs":[{"name":"userOpHash","type":"bytes32","indexed":true,"internalType":"bytes32"},{"name":"sender","type":"address","indexed":true,"internalType":"address"},{"name":"nonce","type":"uint256","indexed":false,"internalType":"uint256"},{"name":"revertReason","type":"bytes","indexed":false,"internalType":"bytes"}],"anonymous":false},{"type":"event","name":"SignatureAggregatorChanged","inputs":[{"name":"aggregator","type":"address","indexed":true,"internalType":"address"}],"anonymous":false},{"type":"event","name":"StakeLocked","inputs":[{"name":"account","type":"address","indexed":true,"internalType":"address"},{"name":"totalStaked","type":"uint256","indexed":false,"internalType":"uint256"},{"name":"unstakeDelaySec","type":"uint256","indexed":false,"internalType":"uint256"}],"anonymous":false},{"type":"event","name":"StakeUnlocked","inputs":[{"name":"account","type":"address","indexed":true,"internalType":"address"},{"name":"withdrawTime","type":"uint256","indexed":false,"internalType":"uint256"}],"anonymous":false},{"type":"event","name":"StakeWithdrawn","inputs":[{"name":"account","type":"address","indexed":true,"internalType":"address"},{"name":"withdrawAddress","type":"address","indexed":false,"internalType":"address"},{"name":"amount","type":"uint256","indexed":false,"internalType":"uint256"}],"anonymous":false},{"type":"event","name":"UserOperationEvent","inputs":[{"name":"userOpHash","type":"bytes32","indexed":true,"internalType":"bytes32"},{"name":"sender","type":"address","indexed":true,"internalType":"address"},{"name":"paymaster","type":"address","indexed":true,"internalType":"address"},{"name":"nonce","type":"uint256","indexed":false,"internalType":"uint256"},{"name":"success","type":"bool","indexed":false,"internalType":"bool"},{"name":"actualGasCost","type":"uint256","indexed":false,"internalType":"uint256"},{"name":"actualGasUsed","type":"uint256","indexed":false,"internalType":"uint256"}],"anonymous":false},{"type":"event","name":"UserOperationPrefundTooLow","inputs":[{"name":"userOpHash","type":"bytes32","indexed":true,"internalType":"bytes32"},{"name":"sender","type":"address","indexed":true,"internalType":"address"},{"name":"nonce","type":"uint256","indexed":false,"internalType":"uint256"}],"anonymous":false},{"type":"event","name":"UserOperationRevertReason","inputs":[{"name":"userOpHash","type":"bytes32","indexed":true,"internalType":"bytes32"},{"name":"sender","type":"address","indexed":true,"internalType":"address"},{"name":"nonce","type":"uint256","indexed":false,"internalType":"uint256"},{"name":"revertReason","type":"bytes","indexed":false,"internalType":"bytes"}],"anonymous":false},{"type":"event","name":"Withdrawn","inputs":[{"name":"account","type":"address","indexed":true,"internalType":"address"},{"name":"withdrawAddress","type":"address","indexed":false,"internalType":"address"},{"name":"amount","type":"uint256","indexed":false,"internalType":"uint256"}],"anonymous":false},{"type":"error","name":"DelegateAndRevert","inputs":[{"name":"success","type":"bool","internalType":"bool"},{"name":"ret","type":"bytes","internalType":"bytes"}]},{"type":"error","name":"FailedOp","inputs":[{"name":"opIndex","type":"uint256","internalType":"uint256"},{"name":"reason","type":"string","internalType":"string"}]},{"type":"error","name":"FailedOpWithRevert","inputs":[{"name":"opIndex","type":"uint256","internalType":"uint256"},{"name":"reason","type":"string","internalType":"string"},{"name":"inner","type":"bytes","internalType":"bytes"}]},{"type":"error","name":"PostOpReverted","inputs":[{"name":"returnData","type":"bytes","internalType":"bytes"}]},{"type":"error","name":"ReentrancyGuardReentrantCall","inputs":[]},{"type":"error","name":"SenderAddressResult","inputs":[{"name":"sender","type":"address","internalType":"address"}]},{"type":"error","name":"SignatureValidationFailed","inputs":[{"name":"aggregator","type":"address","internalType":"address"}]}],"bytecode":{"object":"0x60a0806040523461007f5760016002556101608181016001600160401b0381118382101761006957829162002f44833903906000f0801561005d57608052604051612ebf90816200008582396080518181816109b1015261256d0152f35b6040513d6000823e3d90fd5b634e487b7160e01b600052604160045260246000fd5b600080fdfe60806040526004361015610024575b361561001957600080fd5b61002233611cb6565b005b60003560e01c806242dc531461134e57806301ffc9a7146112b05780630396cb601461105b5780630bd28e3b1461100d5780631b2e01b814610fb7578063205c287814610e9957806322cdde4c14610e5257806335567e1a14610ded5780635287ce1214610d1257806370a0823114610cd8578063765e827f14610abf578063850aaf6214610a395780639b249f6914610946578063b760faf91461092a578063bb9fe6bf14610803578063c23a5cea14610632578063dbed18e01461016f5763fc7e286d0361000e573461016a57602036600319011261016a576001600160a01b0361010f611921565b16600052600060205260a0604060002065ffffffffffff6001825492015460405192835260ff8116151560208401526001600160701b038160081c16604084015263ffffffff8160781c16606084015260981c166080820152f35b600080fd5b3461016a5761017d3661197a565b90610186611e8b565b60009160005b82811061048b575061019e8493611b74565b6000805b8481106102bd5750507fbb47ee3e183a558b1a2ff0874b079f3fc5478b7454eacf2bfc5af2ff5878f972600080a16000809360005b8181106102155761020e868660007f575ff3acadd5ab348fe1855e217e0f3678f8d767d7494c9f9fefbee2e17cca4d8180a2612c36565b6001600255005b61026361022382848a611cf8565b6001600160a01b0361023760208301611d4f565b167f575ff3acadd5ab348fe1855e217e0f3678f8d767d7494c9f9fefbee2e17cca4d600080a280611d1a565b906000915b80831061027a575050506001016101d7565b909194976102b46102ae6001926102a88c8b6102a18261029b8e8b8d611c53565b92611c29565b51916128a6565b90611a23565b99611a30565b95019190610268565b60206102ca828789611cf8565b6102e06102d78280611d1a565b93909201611d4f565b600092906001600160a01b039081165b8285106103045750505050506001016101a2565b90919293956103338361032c61031a848c611c29565b516103268b898b611c53565b85611eac565b9290612dfd565b9116840361044857610402576103498491612dfd565b91166103bf576103695761035e600191611a30565b9601939291906102f0565b60a48760405190631101335b60e11b8252600482015260406024820152602160448201527f41413332207061796d61737465722065787069726564206f72206e6f742064756064820152606560f81b6084820152fd5b60848860405190631101335b60e11b8252600482015260406024820152601460448201527320a0999a1039b4b3b730ba3ab9329032b93937b960611b6064820152fd5b60848860405190631101335b60e11b82526004820152604060248201526017604482015276414132322065787069726564206f72206e6f742064756560481b6064820152fd5b60848960405190631101335b60e11b8252600482015260406024820152601460448201527320a0991a1039b4b3b730ba3ab9329032b93937b960611b6064820152fd5b610496818487611cf8565b936104a18580611d1a565b909590919060206001600160a01b036104bb828401611d4f565b1697600192838a146105ed57896104eb575b5050505060019293949550906104e291611a23565b9392910161018c565b8060406104f9920190611d63565b918a3b1561016a5792939190604051948593632dd8113360e01b855288604486016040600488015252606490818601918a60051b8701019680936000915b8c83106105a857505050505083850360031901602485015250600093839261055e92611c95565b03818a5afa9081610599575b506105885760405163086a9f7560e41b815260048101879052602490fd5b93945084936104e2600189806104cd565b6105a290611880565b8861056a565b9193959697509193976063198a8203018652883561011e198336030181121561016a57836105da879385839401611dc6565b9a01960193019091899796959492610537565b60405162461bcd60e51b815260048101849052601760248201527f4141393620696e76616c69642061676772656761746f720000000000000000006044820152606490fd5b3461016a5760208060031936011261016a5761064c611921565b33600052600082526001604060002001908154916001600160701b038360081c169283156107c75765ffffffffffff8160981c16801561078257421061073d57610100600160c81b0319169055604080516001600160a01b03831681526020810184905260009384938493849333917fb7c918e0e249f999e965cafeb6c664271b3f4317d296461500e71da39f0cbda391a26001600160a01b03165af16106f1611a4c565b50156106f957005b6064906040519062461bcd60e51b82526004820152601860248201527f6661696c656420746f207769746864726177207374616b6500000000000000006044820152fd5b60405162461bcd60e51b815260048101869052601b60248201527f5374616b65207769746864726177616c206973206e6f742064756500000000006044820152606490fd5b60405162461bcd60e51b815260048101879052601d60248201527f6d7573742063616c6c20756e6c6f636b5374616b6528292066697273740000006044820152606490fd5b60405162461bcd60e51b81526004810186905260146024820152734e6f207374616b6520746f20776974686472617760601b6044820152606490fd5b3461016a57600036600319011261016a573360005260006020526001604060002001805463ffffffff8160781c169081156108f85760ff16156108bf5765ffffffffffff9081421601918183116108a957805460ff65ffffffffffff60981b01191665ffffffffffff60981b609885901b161790556040519116815233907ffa9b3c14cc825c412c9ed81b3ba365a5b459439403f18829e572ed53a4180f0a90602090a2005b634e487b7160e01b600052601160045260246000fd5b60405162461bcd60e51b8152602060048201526011602482015270616c726561647920756e7374616b696e6760781b6044820152606490fd5b60405162461bcd60e51b815260206004820152600a6024820152691b9bdd081cdd185ad95960b21b6044820152606490fd5b602036600319011261016a57610022610941611921565b611cb6565b3461016a57602036600319011261016a576004356001600160401b03811161016a57602061097b6109aa923690600401611937565b604051632b870d1b60e11b815260048101849052936001600160a01b0393928592839291602484019190611c95565b03816000857f0000000000000000000000000000000000000000000000000000000000000000165af1908115610a2d576024926000926109fc575b50604051633653dc0360e11b815291166004820152fd5b610a1f91925060203d602011610a26575b610a1781836118ae565b810190611c76565b90836109e5565b503d610a0d565b6040513d6000823e3d90fd5b3461016a57604036600319011261016a57610a52611921565b6024356001600160401b03811161016a57600091610a7583923690600401611937565b90816040519283928337810184815203915af4610a90611a4c565b60408051632650415560e21b8152921515600484015260248301528190610abb9060448301906119fe565b0390fd5b3461016a57610acd3661197a565b610ad8929192611e8b565b610ae183611b74565b60005b848110610b5957506000927fbb47ee3e183a558b1a2ff0874b079f3fc5478b7454eacf2bfc5af2ff5878f972600080a16000915b858310610b295761020e8585612c36565b909193600190610b4f610b3d878987611c53565b610b478886611c29565b5190886128a6565b0194019190610b18565b610b84610b7d610b6b83859795611c29565b51610b77848987611c53565b84611eac565b9190612dfd565b6001600160a01b0392918316610c9557610c4f57610ba190612dfd565b9116610c0c57610bb657600101929092610ae4565b60a49060405190631101335b60e11b8252600482015260406024820152602160448201527f41413332207061796d61737465722065787069726564206f72206e6f742064756064820152606560f81b6084820152fd5b60848260405190631101335b60e11b8252600482015260406024820152601460448201527320a0999a1039b4b3b730ba3ab9329032b93937b960611b6064820152fd5b60848360405190631101335b60e11b82526004820152604060248201526017604482015276414132322065787069726564206f72206e6f742064756560481b6064820152fd5b60848460405190631101335b60e11b8252600482015260406024820152601460448201527320a0991a1039b4b3b730ba3ab9329032b93937b960611b6064820152fd5b3461016a57602036600319011261016a576001600160a01b03610cf9611921565b1660005260006020526020604060002054604051908152f35b3461016a57602036600319011261016a57610d2b611921565b60006080604051610d3b81611833565b828152826020820152826040820152826060820152015260018060a01b0316600052600060205260a060406000206080604051610d7781611833565b6001835493848352015490602081019060ff8316151582526001600160701b0360408201818560081c16815263ffffffff936060840193858760781c16855265ffffffffffff978891019660981c1686526040519788525115156020880152511660408601525116606084015251166080820152f35b3461016a57604036600319011261016a576020610e08611921565b610e10611964565b6001600160a01b0390911660009081526001835260408082206001600160c01b03841683528452908190205481519290911b67ffffffffffffffff1916178152f35b3461016a5760031960203682011261016a57600435906001600160401b03821161016a5761012090823603011261016a57610e91602091600401611a7c565b604051908152f35b3461016a57604036600319011261016a57610eb2611921565b6024359033600052600060205260406000208054808411610f725760008481948294610edf838596611a3f565b9055604080516001600160a01b03831681526020810184905233917fd1c19fbcd4551a5edfb66d43d2e337c04837afda3482b42bdf569a8fccdae5fb91a26001600160a01b03165af1610f30611a4c565b5015610f3857005b60405162461bcd60e51b81526020600482015260126024820152716661696c656420746f20776974686472617760701b6044820152606490fd5b60405162461bcd60e51b815260206004820152601960248201527f576974686472617720616d6f756e7420746f6f206c61726765000000000000006044820152606490fd5b3461016a57604036600319011261016a57610fd0611921565b610fd8611964565b9060018060a01b0316600052600160205260406000209060018060c01b03166000526020526020604060002054604051908152f35b3461016a57602036600319011261016a576004356001600160c01b0381169081900361016a5733600052600160205260406000209060005260205260406000206110578154611a30565b9055005b60208060031936011261016a5760043563ffffffff9182821680920361016a573360005260008152604060002092821561126b576001840154908160781c168310611226576110b86001600160701b039182349160081c16611a23565b9384156111ec578185116111b6579065ffffffffffff6111859254604051906110e082611833565b81528481019260018452604082019088168152606082018781526001608084019360008552336000526000895260406000209051815501945115159160ff6effffffffffffffffffffffffffff008754925160081b169263ffffffff60781b905160781b169316906cffffffffffffffffffffffffff60981b161717178355511681549065ffffffffffff60981b9060981b169065ffffffffffff60981b1916179055565b6040519283528201527fa5ae833d0bb1dcd632d98a8b70973e8516812898e19bf27b70071ebc8dc52c0160403392a2005b60405162461bcd60e51b815260048101849052600e60248201526d7374616b65206f766572666c6f7760901b6044820152606490fd5b60405162461bcd60e51b81526004810184905260126024820152711b9bc81cdd185ad9481cdc1958da599a595960721b6044820152606490fd5b60405162461bcd60e51b815260048101839052601c60248201527f63616e6e6f7420646563726561736520756e7374616b652074696d65000000006044820152606490fd5b60405162461bcd60e51b815260048101839052601a60248201527f6d757374207370656369667920756e7374616b652064656c61790000000000006044820152606490fd5b3461016a57602036600319011261016a5760043563ffffffff60e01b811680910361016a5760209063307e35b760e11b811490811561133d575b811561132c575b811561131b575b811561130a575b506040519015158152f35b6301ffc9a760e01b149050826112ff565b633e84f02160e01b811491506112f8565b63cf28ef9760e01b811491506112f1565b63122a0e9b60e31b811491506112ea565b3461016a5761020036600319011261016a576001600160401b0360043581811161016a573660238201121561016a576113919036906024816004013591016118ea565b36602319016101c0811261016a57610140604051916113af83611833565b1261016a57604051926113c184611864565b6024356001600160a01b038116810361016a5784526044356020808601919091526064356040860152608435606086015260a435608086015260c43560a086015260e43560c086015293610104356001600160a01b038116810361016a5760e08201526101243561010082015261014435610120820152825261016435848301526101843560408301526101a43560608301526101c43560808301526101e43590811161016a57611476903690600401611937565b905a3033036117ee578351606081015195603f5a0260061c61271060a0840151890101116117de576000968151918261171c575b50505050906114c4915a90036080850151019236916118ea565b925a906000948451936114d685612d0e565b60e08601519092906001600160a01b03168061162057505084516001600160a01b0316935b5a9003019360a0606082015191015101608086015185039081811161160c575b5050830260408501519281841060001461157a57505060038110156115665760020361155757610e91929350809361155281612d99565b612d38565b505063deadaa5160e01b825250fd5b634e487b7160e01b85526021600452602485fd5b8161158a92979396940390612ce8565b5060038410156115f857507f49628fd1471006c1482da88028e9ce4dbb080b815c9b0344d39e5a8e6ec1419f60808683015192519460018060a01b03865116948860018060a01b0360e0890151169701519160405192835215898301528760408301526060820152a4610e91565b634e487b7160e01b81526021600452602490fd5b6064919003600a020490930192878061151b565b8095918051611631575b50506114fb565b600386101561170657600286031561162a5760a088015190823b1561016a576000916116829183604051958680958194637c627b2160e01b83528d60048401526080602484015260848301906119fe565b8b8b0260448301528b60648301520393f190816116f2575b506116eb5787893d6108008082116116e3575b506040519282828501016040528184528284013e610abb604051928392632b5e552f60e21b8452600484015260248301906119fe565b9050836116ad565b898061162a565b6116fd919950611880565b6000978a61169a565b634e487b7160e01b600052602160045260246000fd5b91600092918380938c60018060a01b03885116910192f115611741575b8080806114aa565b6114c4929195503d6108008082116117d6575b5060405190888183010160405280825260008983013e805161177d575b50506001949091611739565b7f1c4fada7374c0a9ee8841fc38afe82932dc0f8e69012e927f061a8bae611a20188870151918960018060a01b038551169401516117cc604051928392835260408d84015260408301906119fe565b0390a38680611771565b905088611754565b8763deaddead60e01b6000526000fd5b60405162461bcd60e51b815260048101879052601760248201527f4141393220696e7465726e616c2063616c6c206f6e6c790000000000000000006044820152606490fd5b60a081019081106001600160401b0382111761184e57604052565b634e487b7160e01b600052604160045260246000fd5b61014081019081106001600160401b0382111761184e57604052565b6001600160401b03811161184e57604052565b606081019081106001600160401b0382111761184e57604052565b90601f801991011681019081106001600160401b0382111761184e57604052565b6001600160401b03811161184e57601f01601f191660200190565b9291926118f6826118cf565b9161190460405193846118ae565b82948184528183011161016a578281602093846000960137010152565b600435906001600160a01b038216820361016a57565b9181601f8401121561016a578235916001600160401b03831161016a576020838186019501011161016a57565b602435906001600160c01b038216820361016a57565b90604060031983011261016a576004356001600160401b039283821161016a578060238301121561016a57816004013593841161016a5760248460051b8301011161016a576024908101929190356001600160a01b038116810361016a5790565b60005b8381106119ee5750506000910152565b81810151838201526020016119de565b90602091611a17815180928185528580860191016119db565b601f01601f1916010190565b919082018092116108a957565b60001981146108a95760010190565b919082039182116108a957565b3d15611a77573d90611a5d826118cf565b91611a6b60405193846118ae565b82523d6000602084013e565b606090565b6040611a8a81830183611d63565b9081835191823720611a9f6060840184611d63565b90818451918237209260c0611ab760e0830183611d63565b908186519182372091845195602087019460018060a01b03833516865260208301358789015260608801526080870152608081013560a087015260a081013582870152013560e0850152610100908185015283526101208301916001600160401b03918484108385111761184e57838252845190206101408501908152306101608601524661018086015260608452936101a0019182118383101761184e575251902090565b6001600160401b03811161184e5760051b60200190565b90611b7e82611b5d565b604090611b8e60405191826118ae565b8381528093611b9f601f1991611b5d565b019160005b838110611bb15750505050565b6020908251611bbf81611833565b8351611bca81611864565b600081526000849181838201528187820152816060818184015260809282848201528260a08201528260c08201528260e08201528261010082015282610120820152865281858701528189870152850152830152828601015201611ba4565b8051821015611c3d5760209160051b010190565b634e487b7160e01b600052603260045260246000fd5b9190811015611c3d5760051b8101359061011e198136030182121561016a570190565b9081602091031261016a57516001600160a01b038116810361016a5790565b908060209392818452848401376000828201840152601f01601f1916010190565b7f2da466a7b24304f47e87fa2e1e5a81b9831ce54fec19055ce277ca2f39ba42c46020611ce33484612ce8565b6040519081526001600160a01b0390931692a2565b9190811015611c3d5760051b81013590605e198136030182121561016a570190565b903590601e198136030182121561016a57018035906001600160401b03821161016a57602001918160051b3603831361016a57565b356001600160a01b038116810361016a5790565b903590601e198136030182121561016a57018035906001600160401b03821161016a5760200191813603831361016a57565b9035601e198236030181121561016a5701602081359101916001600160401b03821161016a57813603831361016a57565b6101209181356001600160a01b0381169081900361016a57611e30611e15611e8895611e6993855260208601356020860152611e056040870187611d95565b9091806040880152860191611c95565b611e226060860186611d95565b908583036060870152611c95565b6080840135608084015260a084013560a084015260c084013560c0840152611e5b60e0850185611d95565b9084830360e0860152611c95565b91611e7a6101009182810190611d95565b929091818503910152611c95565b90565b6002805414611e9a5760028055565b604051633ee5aeb560e01b8152600490fd5b926000905a8451949084356001600160a01b0381169081900361016a5786526020850135602087015260808501356fffffffffffffffffffffffffffffffff90818116606089015260801c604088015260a086013560c088015260c086013590811661010088015260801c610120870152611f2a60e0860186611d63565b80156127f257603481106127ad578060141161016a578060241161016a5760341161016a57602481013560801c60a0880152601481013560801c60808801523560601c60e08701525b611f7c85611a7c565b60208301526040860151946effffffffffffffffffffffffffffff8660c08901511760608901511760808901511760a08901511761010089015117610120890151171161276857604087015160608801510160808801510160a08801510160c0880151016101008801510296835160018060a01b03815116906120026040850185611d63565b80612534575b505060e001516001600160a01b031690600082156124fc575b602061204d918b828a01516000868a604051978896879586936306608bdf60e21b855260048501612ddb565b0393f1600091816124c8575b506120d8573d8c6108008083116120d0575b50604051916020818401016040528083526000602084013e610abb6040519283926365c8fd4d60e01b8452600484015260606024840152600d60648401526c10504c8cc81c995d995c9d1959609a1b608484015260a0604484015260a48301906119fe565b91508261206b565b9a92939495969798999a911561245b575b509760018060a01b03835116602084015190600052600160205260406000208160401c6000526020526001600160401b0360406000209182549261212c84611a30565b9055160361240f575a8503116123c35760e090910151606091906001600160a01b0316612176575b509060a09184959697986040608096015260608601520135905a900301910152565b969550505a9683519760018060a01b0360e08a015116806000526000602052604060002080548481106123775760806121da9a9b9c600093878094039055015192602089015183604051809d819582946314add44b60e21b84528c60048501612ddb565b039286f1978860009160009a6122eb575b5061226a573d8b610800808311612262575b50604051916020818401016040528083526000602084013e610abb6040519283926365c8fd4d60e01b8452600484015260606024840152600d60648401526c10504cccc81c995d995c9d1959609a1b608484015260a0604484015260a48301906119fe565b9150826121fd565b9991929394959697989998925a90031161228f57509096959094939291906080612154565b60a49060405190631101335b60e11b8252600482015260406024820152602760448201527f41413336206f766572207061796d6173746572566572696669636174696f6e47606482015266185cd31a5b5a5d60ca1b6084820152fd5b915098503d90816000823e61230082826118ae565b604081838101031261016a578051906001600160401b03821161016a57828101601f83830101121561016a57818101519161233a836118cf565b9361234860405195866118ae565b838552820160208483850101011161016a5760209261236e9184808701918501016119db565b015198386121eb565b60848b60405190631101335b60e11b8252600482015260406024820152601e60448201527f41413331207061796d6173746572206465706f73697420746f6f206c6f7700006064820152fd5b60849060405190631101335b60e11b8252600482015260406024820152601e60448201527f41413236206f76657220766572696669636174696f6e4761734c696d697400006064820152fd5b60848260405190631101335b60e11b8252600482015260406024820152601a60448201527f4141323520696e76616c6964206163636f756e74206e6f6e63650000000000006064820152fd5b600052600060205260406000208054808c1161247c578b90039055386120e9565b60848460405190631101335b60e11b8252600482015260406024820152601760448201527f41413231206469646e2774207061792070726566756e640000000000000000006064820152fd5b9091506020813d6020116124f4575b816124e4602093836118ae565b8101031261016a57519038612059565b3d91506124d7565b508060005260006020526040600020548a8111600014612527575061204d602060005b915050612021565b602061204d918c0361251f565b833b61271c5760408851015160206040518092632b870d1b60e11b82528260048301528160008161256960248201898b611c95565b03927f00000000000000000000000000000000000000000000000000000000000000006001600160a01b031690f1908115610a2d576000916126fd575b506001600160a01b03811680156126b1578503612665573b156126195760141161016a5782907fd51a9c61267aa6196961883ecf5ff2da6619c37dac0fa92122513fb32c032d2d604060208a01519260018060a01b0360e08c510151168251913560601c82526020820152a33880612008565b60848d60405190631101335b60e11b8252600482015260406024820152602060448201527f4141313520696e6974436f6465206d757374206372656174652073656e6465726064820152fd5b60848e60405190631101335b60e11b8252600482015260406024820152602060448201527f4141313420696e6974436f6465206d7573742072657475726e2073656e6465726064820152fd5b60848f60405190631101335b60e11b8252600482015260406024820152601b60448201527f4141313320696e6974436f6465206661696c6564206f72204f4f4700000000006064820152fd5b612716915060203d602011610a2657610a1781836118ae565b386125a6565b60848d60405190631101335b60e11b8252600482015260406024820152601f60448201527f414131302073656e64657220616c726561647920636f6e7374727563746564006064820152fd5b60405162461bcd60e51b815260206004820152601860248201527f41413934206761732076616c756573206f766572666c6f7700000000000000006044820152606490fd5b60405162461bcd60e51b815260206004820152601d60248201527f4141393320696e76616c6964207061796d6173746572416e64446174610000006044820152606490fd5b5050600060e087015260006080870152600060a0870152611f73565b60806101a091805160018060a01b03808251168652602082015160208701526040820151604087015260608201516060870152838201518487015260a082015160a087015260c082015160c087015260e08201511660e0860152610100808201519086015261012080910151908501526020810151610140850152604081015161016085015260608101516101808501520151910152565b9092915a90606081015191604092835196876128c56060830183611d63565b919060009260038111612c2d575b638dd7712f60e01b936001600160e01b0319168403612bc75750505061298860009261295c92602088015161291b8a5193849360208501528b60248501526064840190611dc6565b9060448301520390612935601f19928381018352826118ae565b61297c89519485926242dc5360e01b602085015261020060248501526102248401906119fe565b612969604484018b61280e565b82810360231901610204840152876119fe565b039081018352826118ae565b6020918183809351910182305af1600051988652156129aa575b505050505050565b909192939495965060003d8214612bbd575b63deaddead60e01b8103612a065760848787805191631101335b60e11b835260048301526024820152600f60448201526e41413935206f7574206f662067617360881b6064820152fd5b93955091939290919063deadaa5160e01b03612a56575050612a3a612a2f612a49935a90611a3f565b608085015190611a23565b90830151836115528295612d99565b905b3880808080806129a2565b9092612ad590828601518651907ff62676f440ff169a3a9afdbf812e89e7f95975ee8e5c31214ffdef631c5f479260018060a01b03958087855116940151612acb3d610800808211612bb5575b508a519084818301018c5280825260008583013e8a805194859485528401528a8301906119fe565b0390a35a90611a3f565b91612ae66080860193845190611a23565b926000905a948294885197612afa89612d0e565b948260e08b0151168015600014612b9b57505050875116955b5a9003019560a06060820151910151019051860390818111612b87575b505084029085015192818410600014612b61575050806115f857509081612b5b929361155281612d99565b90612a4b565b612b719082849397950390612ce8565b506115f857509082612b8292612d38565b612b5b565b6064919003600a0204909401933880612b30565b90919892509751612bad575b50612b13565b955038612ba7565b905038612aa3565b8181803e516129bc565b6242dc5360e01b60208401526102006024840152612c259450919250612c1791612bf79161022485019190611c95565b612c04604484018861280e565b82810360231901610204840152846119fe565b03601f1981018952886118ae565b600087612988565b813593506128d3565b6001600160a01b03168015612ca357600080809381935af1612c56611a4c565b5015612c5e57565b60405162461bcd60e51b815260206004820152601f60248201527f41413931206661696c65642073656e6420746f2062656e6566696369617279006044820152606490fd5b60405162461bcd60e51b815260206004820152601860248201527f4141393020696e76616c69642062656e656669636961727900000000000000006044820152606490fd5b60018060a01b03166000526000602052612d086040600020918254611a23565b80915590565b610120610100820151910151808214612d3457480180821015612d2f575090565b905090565b5090565b9190917f49628fd1471006c1482da88028e9ce4dbb080b815c9b0344d39e5a8e6ec1419f6080602083015192519460018060a01b03946020868851169660e089015116970151916040519283526000602084015260408301526060820152a4565b60208101519051907f67b4fa9642f42120bf031f3051d1824b0fe25627945b27b8a6a65d5761d5482e60208060018060a01b03855116940151604051908152a3565b612df360409295949395606083526060830190611dc6565b9460208201520152565b8015612e8057600060408051612e1281611893565b8281526020810183905201526001600160a01b0381169065ffffffffffff9060409060a081901c8316908115612e78575b60d01c92825191612e5383611893565b8583528460208401521691829101524211908115612e7057509091565b905042109091565b839150612e43565b5060009060009056fea264697066735822122029666c1c6121477b4dd16a1d1403d1efb1b0dd89d4b0f8d871c7c583a03e817a64736f6c634300081800336080806040523461001657610144908161001c8239f35b600080fdfe6080600436101561000f57600080fd5b6000803560e01c63570e1a361461002557600080fd5b3461010b57602036600319011261010b576004359167ffffffffffffffff9081841161010757366023850112156101075783600401358281116101035736602482870101116101035780601411610103576013198101928084116100ef57600b8201601f19908116603f01168301908111838210176100ef5792846024819482600c60209a968b9960405286845289840196603889018837830101525193013560601c5af190805191156100e7575b506040516001600160a01b039091168152f35b9050386100d4565b634e487b7160e01b85526041600452602485fd5b8380fd5b8280fd5b80fdfea26469706673582212208860c3b7d4f10c7319d8bf2bda847ad473b06e57ba340b85894444387ae79bb764736f6c63430008180033","linkReferences":{}},"methodIdentifiers":{"addStake(uint32)":"0396cb60","balanceOf(address)":"70a08231","delegateAndRevert(address,bytes)":"850aaf62","depositTo(address)":"b760faf9","deposits(address)":"fc7e286d","getDepositInfo(address)":"5287ce12","getNonce(address,uint192)":"35567e1a","getSenderAddress(bytes)":"9b249f69","getUserOpHash((address,uint256,bytes,bytes,bytes32,uint256,bytes32,bytes,bytes))":"22cdde4c","handleAggregatedOps(((address,uint256,bytes,bytes,bytes32,uint256,bytes32,bytes,bytes)[],address,bytes)[],address)":"dbed18e0","handleOps((address,uint256,bytes,bytes,bytes32,uint256,bytes32,bytes,bytes)[],address)":"765e827f","incrementNonce(uint192)":"0bd28e3b","innerHandleOp(bytes,((address,uint256,uint256,uint256,uint256,uint256,uint256,address,uint256,uint256),bytes32,uint256,uint256,uint256),bytes)":"0042dc53","nonceSequenceNumber(address,uint192)":"1b2e01b8","supportsInterface(bytes4)":"01ffc9a7","unlockStake()":"bb9fe6bf","withdrawStake(address)":"c23a5cea","withdrawTo(address,uint256)":"205c2878"},"id":0}