{"abi":[{"type":"function","name":"createSender","inputs":[{"name":"initCode","type":"bytes","internalType":"bytes"}],"outputs":[{"name":"sender","type":"address","internalType":"address"}],"stateMutability":"nonpayable"}],"bytecode":{"object":"0x6080806040523461001657610144908161001c8239f35b600080fdfe6080600436101561000f57600080fd5b6000803560e01c63570e1a361461002557600080fd5b3461010b57602036600319011261010b576004359167ffffffffffffffff9081841161010757366023850112156101075783600401358281116101035736602482870101116101035780601411610103576013198101928084116100ef57600b8201601f19908116603f01168301908111838210176100ef5792846024819482600c60209a968b9960405286845289840196603889018837830101525193013560601c5af190805191156100e7575b506040516001600160a01b039091168152f35b9050386100d4565b634e487b7160e01b85526041600452602485fd5b8380fd5b8280fd5b80fdfea26469706673582212208860c3b7d4f10c7319d8bf2bda847ad473b06e57ba340b85894444387ae79bb764736f6c63430008180033","linkReferences":{}},"methodIdentifiers":{"createSender(bytes)":"570e1a36"},"id":3}