{"abi":[{"type":"constructor","inputs":[],"stateMutability":"nonpayable"},{"type":"function","name":"executeTransaction","inputs":[{"name":"","type":"bytes32","internalType":"bytes32"},{"name":"","type":"bytes32","internalType":"bytes32"},{"name":"_transaction","type":"tuple","internalType":"struct Transaction","components":[{"name":"txType","type":"uint256","internalType":"uint256"},{"name":"from","type":"uint256","internalType":"uint256"},{"name":"to","type":"uint256","internalType":"uint256"},{"name":"gasLimit","type":"uint256","internalType":"uint256"},{"name":"gasPerPubdataByteLimit","type":"uint256","internalType":"uint256"},{"name":"maxFeePerGas","type":"uint256","internalType":"uint256"},{"name":"maxPriorityFeePerGas","type":"uint256","internalType":"uint256"},{"name":"paymaster","type":"uint256","internalType":"uint256"},{"name":"nonce","type":"uint256","internalType":"uint256"},{"name":"value","type":"uint256","internalType":"uint256"},{"name":"reserved","type":"uint256[4]","internalType":"uint256[4]"},{"name":"data","type":"bytes","internalType":"bytes"},{"name":"signature","type":"bytes","internalType":"bytes"},{"name":"factoryDeps","type":"bytes32[]","internalType":"bytes32[]"},{"name":"paymasterInput","type":"bytes","internalType":"bytes"},{"name":"reservedDynamic","type":"bytes","internalType":"bytes"}]}],"outputs":[],"stateMutability":"payable"},{"type":"function","name":"executeTransactionFromOutside","inputs":[{"name":"_transaction","type":"tuple","internalType":"struct Transaction","components":[{"name":"txType","type":"uint256","internalType":"uint256"},{"name":"from","type":"uint256","internalType":"uint256"},{"name":"to","type":"uint256","internalType":"uint256"},{"name":"gasLimit","type":"uint256","internalType":"uint256"},{"name":"gasPerPubdataByteLimit","type":"uint256","internalType":"uint256"},{"name":"maxFeePerGas","type":"uint256","internalType":"uint256"},{"name":"maxPriorityFeePerGas","type":"uint256","internalType":"uint256"},{"name":"paymaster","type":"uint256","internalType":"uint256"},{"name":"nonce","type":"uint256","internalType":"uint256"},{"name":"value","type":"uint256","internalType":"uint256"},{"name":"reserved","type":"uint256[4]","internalType":"uint256[4]"},{"name":"data","type":"bytes","internalType":"bytes"},{"name":"signature","type":"bytes","internalType":"bytes"},{"name":"factoryDeps","type":"bytes32[]","internalType":"bytes32[]"},{"name":"paymasterInput","type":"bytes","internalType":"bytes"},{"name":"reservedDynamic","type":"bytes","internalType":"bytes"}]}],"outputs":[],"stateMutability":"payable"},{"type":"function","name":"owner","inputs":[],"outputs":[{"name":"","type":"address","internalType":"address"}],"stateMutability":"view"},{"type":"function","name":"payForTransaction","inputs":[{"name":"","type":"bytes32","internalType":"bytes32"},{"name":"","type":"bytes32","internalType":"bytes32"},{"name":"_transaction","type":"tuple","internalType":"struct Transaction","components":[{"name":"txType","type":"uint256","internalType":"uint256"},{"name":"from","type":"uint256","internalType":"uint256"},{"name":"to","type":"uint256","internalType":"uint256"},{"name":"gasLimit","type":"uint256","internalType":"uint256"},{"name":"gasPerPubdataByteLimit","type":"uint256","internalType":"uint256"},{"name":"maxFeePerGas","type":"uint256","internalType":"uint256"},{"name":"maxPriorityFeePerGas","type":"uint256","internalType":"uint256"},{"name":"paymaster","type":"uint256","internalType":"uint256"},{"name":"nonce","type":"uint256","internalType":"uint256"},{"name":"value","type":"uint256","internalType":"uint256"},{"name":"reserved","type":"uint256[4]","internalType":"uint256[4]"},{"name":"data","type":"bytes","internalType":"bytes"},{"name":"signature","type":"bytes","internalType":"bytes"},{"name":"factoryDeps","type":"bytes32[]","internalType":"bytes32[]"},{"name":"paymasterInput","type":"bytes","internalType":"bytes"},{"name":"reservedDynamic","type":"bytes","internalType":"bytes"}]}],"outputs":[],"stateMutability":"payable"},{"type":"function","name":"prepareForPaymaster","inputs":[{"name":"_txHash","type":"bytes32","internalType":"bytes32"},{"name":"_possibleSignedHash","type":"bytes32","internalType":"bytes32"},{"name":"_transaction","type":"tuple","internalType":"struct Transaction","components":[{"name":"txType","type":"uint256","internalType":"uint256"},{"name":"from","type":"uint256","internalType":"uint256"},{"name":"to","type":"uint256","internalType":"uint256"},{"name":"gasLimit","type":"uint256","internalType":"uint256"},{"name":"gasPerPubdataByteLimit","type":"uint256","internalType":"uint256"},{"name":"maxFeePerGas","type":"uint256","internalType":"uint256"},{"name":"maxPriorityFeePerGas","type":"uint256","internalType":"uint256"},{"name":"paymaster","type":"uint256","internalType":"uint256"},{"name":"nonce","type":"uint256","internalType":"uint256"},{"name":"value","type":"uint256","internalType":"uint256"},{"name":"reserved","type":"uint256[4]","internalType":"uint256[4]"},{"name":"data","type":"bytes","internalType":"bytes"},{"name":"signature","type":"bytes","internalType":"bytes"},{"name":"factoryDeps","type":"bytes32[]","internalType":"bytes32[]"},{"name":"paymasterInput","type":"bytes","internalType":"bytes"},{"name":"reservedDynamic","type":"bytes","internalType":"bytes"}]}],"outputs":[],"stateMutability":"payable"},{"type":"function","name":"renounceOwnership","inputs":[],"outputs":[],"stateMutability":"nonpayable"},{"type":"function","name":"transferOwnership","inputs":[{"name":"newOwner","type":"address","internalType":"address"}],"outputs":[],"stateMutability":"nonpayable"},{"type":"function","name":"validateTransaction","inputs":[{"name":"","type":"bytes32","internalType":"bytes32"},{"name":"","type":"bytes32","internalType":"bytes32"},{"name":"_transaction","type":"tuple","internalType":"struct Transaction","components":[{"name":"txType","type":"uint256","internalType":"uint256"},{"name":"from","type":"uint256","internalType":"uint256"},{"name":"to","type":"uint256","internalType":"uint256"},{"name":"gasLimit","type":"uint256","internalType":"uint256"},{"name":"gasPerPubdataByteLimit","type":"uint256","internalType":"uint256"},{"name":"maxFeePerGas","type":"uint256","internalType":"uint256"},{"name":"maxPriorityFeePerGas","type":"uint256","internalType":"uint256"},{"name":"paymaster","type":"uint256","internalType":"uint256"},{"name":"nonce","type":"uint256","internalType":"uint256"},{"name":"value","type":"uint256","internalType":"uint256"},{"name":"reserved","type":"uint256[4]","internalType":"uint256[4]"},{"name":"data","type":"bytes","internalType":"bytes"},{"name":"signature","type":"bytes","internalType":"bytes"},{"name":"factoryDeps","type":"bytes32[]","internalType":"bytes32[]"},{"name":"paymasterInput","type":"bytes","internalType":"bytes"},{"name":"reservedDynamic","type":"bytes","internalType":"bytes"}]}],"outputs":[{"name":"magic","type":"bytes4","internalType":"bytes4"}],"stateMutability":"payable"},{"type":"event","name":"OwnershipTransferred","inputs":[{"name":"previousOwner","type":"address","indexed":true,"internalType":"address"},{"name":"newOwner","type":"address","indexed":true,"internalType":"address"}],"anonymous":false},{"type":"error","name":"ECDSAInvalidSignature","inputs":[]},{"type":"error","name":"ECDSAInvalidSignatureLength","inputs":[{"name":"length","type":"uint256","internalType":"uint256"}]},{"type":"error","name":"ECDSAInvalidSignatureS","inputs":[{"name":"s","type":"bytes32","internalType":"bytes32"}]},{"type":"error","name":"OwnableInvalidOwner","inputs":[{"name":"owner","type":"address","internalType":"address"}]},{"type":"error","name":"OwnableUnauthorizedAccount","inputs":[{"name":"account","type":"address","internalType":"address"}]},{"type":"error","name":"ZkMinimalAccount__ExecutionFailed","inputs":[]},{"type":"error","name":"ZkMinimalAccount__FailedToPay","inputs":[]},{"type":"error","name":"ZkMinimalAccount__InvalidSignature","inputs":[]},{"type":"error","name":"ZkMinimalAccount__NotEnoughBalance","inputs":[]},{"type":"error","name":"ZkMinimalAccount__NotFromBootLoader","inputs":[]},{"type":"error","name":"ZkMinimalAccount__NotFromBootLoaderOrOwner","inputs":[]}],"bytecode":{"object":"0x6080806040523461007a5733156100645760008054336001600160a01b03198216811783556040519290916001600160a01b0316907f8be0079c531659141344cd1fd0a4f28419497f9722a3daafe3b4186f6b6457e09080a361158690816100808239f35b631e4fbdf760e01b815260006004820152602490fd5b600080fdfe6080604052600436101561001257600080fd5b60003560e01c8063202bcce714610097578063715018a6146100925780638da5cb5b1461008d578063a28c1aee14610088578063df9c158914610083578063e2f318e31461007e578063eeb8cb09146100795763f2fde38b1461007457600080fd5b610562565b6104fc565b6104b4565b610468565b61045d565b610434565b6103d6565b6100a0366103a1565b91505061800133036100ca576100b7602091610603565b6040516001600160e01b03199091168152f35b60405163b70cd79560e01b8152600490fd5b634e487b7160e01b600052604160045260246000fd5b604081019081106001600160401b0382111761010d57604052565b6100dc565b90601f801991011681019081106001600160401b0382111761010d57604052565b6040519061020082018281106001600160401b0382111761010d57604052565b9080601f830112156101a85760405191608083018381106001600160401b0382111761010d576040528290608081019283116101a857905b8282106101985750505090565b813581526020918201910161018b565b600080fd5b6001600160401b03811161010d57601f01601f191660200190565b81601f820112156101a8578035906101df826101ad565b926101ed6040519485610112565b828452602083830101116101a857816000926020809301838601378301015290565b81601f820112156101a8578035916020916001600160401b03841161010d578360051b906040519461024385840187610112565b855283808601928201019283116101a8578301905b828210610266575050505090565b81358152908301908301610258565b9190610260838203126101a85761028a610133565b92803584526020810135602085015260408101356040850152606081013560608501526080810135608085015260a081013560a085015260c081013560c085015260e081013560e0850152610100808201359085015261012080820135908501526101406102fa83828401610153565b908501526101c0916001600160401b03828401358181116101a857826103219185016101c8565b6101608701526101e093848401358281116101a857836103429186016101c8565b6101808801526102008401358281116101a8578361036191860161020f565b6101a08801526102208401358281116101a857836103809186016101c8565b908701526102408301359081116101a85761039b92016101c8565b90830152565b60606003198201126101a8576004359160243591604435906001600160401b0382116101a8576103d391600401610275565b90565b346101a857600080600319360112610431576103f06106fd565b80546001600160a01b03198116825581906001600160a01b03167f8be0079c531659141344cd1fd0a4f28419497f9722a3daafe3b4186f6b6457e08280a380f35b80fd5b346101a85760003660031901126101a8576000546040516001600160a01b039091168152602090f35b610466366103a1565b005b610471366103a1565b9150506180013314158061049f575b61048d5761046690610729565b6040516333b26e5f60e21b8152600490fd5b506000546001600160a01b0316331415610480565b6104dd6104c0366103a1565b915050606060a08201519160008094819482948394015190610829565b6180015af1156104ea5780f35b604051636003323f60e11b8152600490fd5b60203660031901126101a8576004356001600160401b0381116101a857610527903690600401610275565b63202bcce760e01b6001600160e01b031961054183610603565b16036105505761046690610729565b60405163649ce1f360e11b8152600490fd5b346101a85760203660031901126101a8576001600160a01b03600435818116908190036101a8576105916106fd565b80156105d457600080546001600160a01b03198116831782559092167f8be0079c531659141344cd1fd0a4f28419497f9722a3daafe3b4186f6b6457e08380a380f35b604051631e4fbdf760e01b815260006004820152602490fd5b634e487b7160e01b600052601160045260246000fd5b6106536106406106165a63ffffffff1690565b61064e610100850151604051938491631c24739b60e31b6020840152602483019190602083019252565b03601f198101845283610112565b610841565b5061065d816108b5565b47106106eb57806101806106a56106766106ae946108f5565b7f19457468657265756d205369676e6564204d6573736167653a0a333200000000600052601c52603c60002090565b91015190610981565b6000546106cb906001600160a01b03165b6001600160a01b031690565b6001600160a01b03909116036106e65763202bcce760e01b90565b600090565b604051630d363a5760e31b8152600490fd5b6000546001600160a01b0316330361071157565b60405163118cdaa760e01b8152336004820152602490fd5b60009060018060a01b03604082015116906101606101208201516001600160801b039061075882821115610997565b1691015161800683148414610803575a9063ffffffff9161077b83821115610997565b610789825193841115610997565b60c01b63ffffffff60c01b1660209190910160401b63ffffffff60401b161760609190911b63ffffffff60601b1617600160f81b1790801584146107f35750828061fff58194f15b3d906107dc826109e8565b9060208201926000843e156107ef575050565b5190fd5b9160019261fff5618009f16107d1565b90918392602083519301915af11561081757565b60405163624d0c6d60e11b8152600490fd5b8181029291811591840414171561083c57565b6105ed565b8151600092839261085863ffffffff841115610997565b60c01b63ffffffff60c01b1660209190910160401b63ffffffff60401b161760609190911b63ffffffff60601b1617600160f81b17818061fff5618003f1903d6108a1816109e8565b60208101916000833e8093156107ef575050565b60e08101516001600160a01b0316156108d057610120015190565b6101206108e660a0830151606084015190610829565b910151810180911161083c5790565b80518061090857506103d390611056565b565b6071810361091a57506103d390610de3565b6002810361092c57506103d390610ca4565b60010361093c576103d390610ae9565b60405162461bcd60e51b815260206004820152601760248201527f456e636f64696e6720756e737570706f727465642074780000000000000000006044820152606490fd5b6103d39161098e91611181565b909291926111dd565b1561099e57565b60405162461bcd60e51b81526020600482015260086024820152674f766572666c6f7760c01b6044820152606490fd5b604051906109db826100f2565b6001825260203681840137565b906109f2826101ad565b6109ff6040519182610112565b8281528092610a10601f19916101ad565b0190602036910137565b9081519160005b838110610a32575050016000815290565b8060208092840101518185015201610a21565b9261090694610a71610a7192610a7161064096610a71610a719c9b976040519d8e9b60208d0190610a1a565b90610a1a565b805115610a845760200190565b634e487b7160e01b600052603260045260246000fd5b60405190610aa7826100f2565b60018252608160f81b6020830152565b9193610a7161090694610a71610a719897610a71610640966040519b8c99600160f81b60208c015260218b0190610a1a565b610bc690610b59610af94661126a565b610b0761010084015161126a565b610b1460a085015161126a565b610b21606086015161126a565b6040860151909190610b4490610b3f906001600160a01b03166106bf565b6112ed565b92610b5361012088015161126a565b94610a45565b9061016060609101908151610b7581516001600160401b031690565b906001600160401b038216600114610bd05750610b929150611324565b610b9a6114d0565b92610bbe610bb98251845101855151018651016001600160401b031690565b6114e4565b925192610ab7565b6020815191012090565b600160ff1b91506001600160f81b031990610bfc90610bee90610a77565b516001600160f81b03191690565b1610610b925750610c0b610a9a565b610b92565b9492909695939160405197889660208801610c2a91610a1a565b610c3391610a1a565b610c3c91610a1a565b610c4591610a1a565b610c4e91610a1a565b610c5791610a1a565b610c6091610a1a565b03601f19810183526109069083610112565b9193610a7161090694610a71610a719897610a71610640966040519b8c99600160f91b60208c015260218b0190610a1a565b610bc690610d1c610cb44661126a565b610cc261010084015161126a565b610ccf60c085015161126a565b610cdc60a086015161126a565b610ce9606087015161126a565b6040870151909290610d0790610b3f906001600160a01b03166106bf565b93610d1661012089015161126a565b95610c10565b9061016060609101908151610d3881516001600160401b031690565b906001600160401b038216600114610d845750610d559150611324565b610d5d6114d0565b92610d7c610bb98251845101855151018651016001600160401b031690565b925192610c72565b600160ff1b91506001600160f81b031990610da290610bee90610a77565b1610610d555750610db1610a9a565b610d55565b805160208092019160005b828110610dcf575050505090565b835185529381019392810192600101610dc1565b80516020820151906040830151606084015191608085015160a08601519560c081015160e08201516101008301516101208401519161016085015180519060200120936101a08601519b604051809d60208201610e3f91610db6565b039c601f199d8e81018252610e549082610112565b80519060200120966101c0015180519060200120976040519b8c9b60208d019e8f9c610ef99d999693909d9c9b9895926101a09b9895926101c08c019f7f848e1bfa1ac4e3576b728bda6721b215c70a7799a5b4866282a71bab954baac88d5260208d015260408c015260608b015260808a015260a089015260c088015260e08701526101008601526101208501526101408401526101608301526101808201520152565b038381018252610f099082610112565b5190209060405160208101908046610f9890849190606060808401937fc2f8787176b8ac6bf7215b4adcc1e069bf4ab82d9ab1df05a57a91d425935b6e81527f19b453ce45aaaaf3a300f5a9ec95869b4f28ab10430b572ee218c3a6a5e07d6f60208201527fad7c5bef027816a800da1736444fb58a807ef4c9603b7848673f7e3a68eb14a560408201520152565b038381018252610fa89082610112565b51902060405161190160f01b6020820190815260228201929092526042810193909352606291820183529190610fde9082610112565b51902090565b61090690610640610a7194936040519586936020850190610a1a565b90610906600261101a936040519485916020830190610a1a565b61010160f71b815203601d19810185520183610112565b9593919796949290976040519889976020890161104d91610a1a565b610c2a91610a1a565b610bc69061106861010082015161126a565b61108b61107860a084015161126a565b611085606085015161126a565b90610fe4565b60408301519091906110a990610b3f906001600160a01b03166106bf565b6110b761012085015161126a565b906060936101608601948551906110d582516001600160401b031690565b916001600160401b03831660011461114a5750506110f290611324565b935b610140606097015151611131575b611129610bb98251845101855101865101875101885151018951016001600160401b031690565b955195611031565b955061114461113f4661126a565b611000565b95611102565b90959150600160ff1b906001600160f81b03199061116b90610bee90610a77565b16106110f457935061117b610a9a565b936110f4565b81519190604183036111b2576111ab92506020820151906060604084015193015160001a906113c1565b9192909190565b505060009160029190565b600411156111c757565b634e487b7160e01b600052602160045260246000fd5b6111e6816111bd565b806111ef575050565b6111f8816111bd565b600181036112125760405163f645eedf60e01b8152600490fd5b61121b816111bd565b6002810361123c5760405163fce698f760e01b815260048101839052602490fd5b806112486003926111bd565b146112505750565b6040516335e2f38360e21b81526004810191909152602490fd5b9060808210156112aa5761127c6109ce565b91806112985750600160ff1b5b60001a61129583610a77565b53565b60f81b6001600160f81b031916611289565b6112b382611451565b916112c0600284016109e8565b926081810160f81b6001600160f81b03191660001a6112de85610a77565b53601f0360031b1b6021830152565b906040516112fa816100f2565b60158152602560fa1b602082015260609290921b6bffffffffffffffffffffffff19166021830152565b6001600160401b0316600181146113ab576038811015611367576113466109ce565b9060800160f81b6001600160f81b03191660001a61136382610a77565b5390565b61137081611451565b9061137d600283016109e8565b9160b8810160f81b6001600160f81b03191660001a61139b84610a77565b53601f0360031b1b602182015290565b634e487b7160e01b600052600160045260246000fd5b91907f7fffffffffffffffffffffffffffffff5d576e7357a4501ddfe92f46681b20a0841161144557926020929160ff608095604051948552168484015260408301526060820152600092839182805260015afa156114395780516001600160a01b0381161561143057918190565b50809160019190565b604051903d90823e3d90fd5b50505060009160039190565b906000916001600160801b0381116114c4575b806001600160401b0360ff92116114b6575b63ffffffff81116114a8575b61ffff811161149a575b1161149357565b9060010190565b60029060101c93019261148c565b60049060201c930192611482565b60089060401c930192611476565b6010925060801c611464565b6114d86109ce565b9060c061129583610a77565b6001600160401b031690603882101561151c576114ff6109ce565b9160c00160f81b6001600160f81b03191660001a61129583610a77565b61152582611451565b91611532600284016109e8565b9260f8808201901b6001600160f81b03191660001a6112de85610a7756fea2646970667358221220a60ebba6af1a44329ebb12429785be47e4af3c8c244bf1f966887dbb3f433ec464736f6c63430008180033","linkReferences":{}},"methodIdentifiers":{"executeTransaction(bytes32,bytes32,(uint256,uint256,uint256,uint256,uint256,uint256,uint256,uint256,uint256,uint256,uint256[4],bytes,bytes,bytes32[],bytes,bytes))":"df9c1589","executeTransactionFromOutside((uint256,uint256,uint256,uint256,uint256,uint256,uint256,uint256,uint256,uint256,uint256[4],bytes,bytes,bytes32[],bytes,bytes))":"eeb8cb09","owner()":"8da5cb5b","payForTransaction(bytes32,bytes32,(uint256,uint256,uint256,uint256,uint256,uint256,uint256,uint256,uint256,uint256,uint256[4],bytes,bytes,bytes32[],bytes,bytes))":"e2f318e3","prepareForPaymaster(bytes32,bytes32,(uint256,uint256,uint256,uint256,uint256,uint256,uint256,uint256,uint256,uint256,uint256[4],bytes,bytes,bytes32[],bytes,bytes))":"a28c1aee","renounceOwnership()":"715018a6","transferOwnership(address)":"f2fde38b","validateTransaction(bytes32,bytes32,(uint256,uint256,uint256,uint256,uint256,uint256,uint256,uint256,uint256,uint256,uint256[4],bytes,bytes,bytes32[],bytes,bytes))":"202bcce7"},"id":59}